{
  "contractName": "TributeToken",
  "abi": [
    {
      "constant": true,
      "inputs": [
        {
          "name": "",
          "type": "address"
        }
      ],
      "name": "owners",
      "outputs": [
        {
          "name": "",
          "type": "bool"
        }
      ],
      "payable": false,
      "stateMutability": "view",
      "type": "function"
    },
    {
      "constant": true,
      "inputs": [
        {
          "name": "",
          "type": "address"
        }
      ],
      "name": "funders",
      "outputs": [
        {
          "name": "",
          "type": "bool"
        }
      ],
      "payable": false,
      "stateMutability": "view",
      "type": "function"
    },
    {
      "constant": true,
      "inputs": [],
      "name": "name",
      "outputs": [
        {
          "name": "",
          "type": "string"
        }
      ],
      "payable": false,
      "stateMutability": "view",
      "type": "function"
    },
    {
      "constant": true,
      "inputs": [],
      "name": "totalRewards",
      "outputs": [
        {
          "name": "",
          "type": "uint256"
        }
      ],
      "payable": false,
      "stateMutability": "view",
      "type": "function"
    },
    {
      "constant": true,
      "inputs": [],
      "name": "totalSupply",
      "outputs": [
        {
          "name": "",
          "type": "uint256"
        }
      ],
      "payable": false,
      "stateMutability": "view",
      "type": "function"
    },
    {
      "constant": true,
      "inputs": [],
      "name": "feesNumerator",
      "outputs": [
        {
          "name": "",
          "type": "uint256"
        }
      ],
      "payable": false,
      "stateMutability": "view",
      "type": "function"
    },
    {
      "constant": true,
      "inputs": [],
      "name": "decimals",
      "outputs": [
        {
          "name": "",
          "type": "uint8"
        }
      ],
      "payable": false,
      "stateMutability": "view",
      "type": "function"
    },
    {
      "constant": true,
      "inputs": [
        {
          "name": "_owner",
          "type": "address"
        }
      ],
      "name": "balanceOf",
      "outputs": [
        {
          "name": "",
          "type": "uint256"
        }
      ],
      "payable": false,
      "stateMutability": "view",
      "type": "function"
    },
    {
      "constant": true,
      "inputs": [],
      "name": "feesDenominator",
      "outputs": [
        {
          "name": "",
          "type": "uint256"
        }
      ],
      "payable": false,
      "stateMutability": "view",
      "type": "function"
    },
    {
      "constant": true,
      "inputs": [],
      "name": "symbol",
      "outputs": [
        {
          "name": "",
          "type": "string"
        }
      ],
      "payable": false,
      "stateMutability": "view",
      "type": "function"
    },
    {
      "constant": false,
      "inputs": [
        {
          "name": "_to",
          "type": "address"
        },
        {
          "name": "_value",
          "type": "uint256"
        }
      ],
      "name": "transfer",
      "outputs": [
        {
          "name": "",
          "type": "bool"
        }
      ],
      "payable": false,
      "stateMutability": "nonpayable",
      "type": "function"
    },
    {
      "constant": true,
      "inputs": [],
      "name": "totalRedeemedValue",
      "outputs": [
        {
          "name": "",
          "type": "uint256"
        }
      ],
      "payable": false,
      "stateMutability": "view",
      "type": "function"
    },
    {
      "constant": true,
      "inputs": [],
      "name": "totalFundedValue",
      "outputs": [
        {
          "name": "",
          "type": "uint256"
        }
      ],
      "payable": false,
      "stateMutability": "view",
      "type": "function"
    },
    {
      "constant": true,
      "inputs": [],
      "name": "totalRedeemed",
      "outputs": [
        {
          "name": "",
          "type": "uint256"
        }
      ],
      "payable": false,
      "stateMutability": "view",
      "type": "function"
    },
    {
      "inputs": [
        {
          "name": "initiator",
          "type": "address"
        },
        {
          "name": "_name",
          "type": "string"
        },
        {
          "name": "_symbol",
          "type": "string"
        },
        {
          "name": "_decimals",
          "type": "uint8"
        },
        {
          "name": "supply",
          "type": "uint256"
        }
      ],
      "payable": false,
      "stateMutability": "nonpayable",
      "type": "constructor"
    },
    {
      "anonymous": false,
      "inputs": [
        {
          "indexed": true,
          "name": "from",
          "type": "address"
        },
        {
          "indexed": true,
          "name": "to",
          "type": "address"
        },
        {
          "indexed": false,
          "name": "value",
          "type": "uint256"
        }
      ],
      "name": "Transfer",
      "type": "event"
    },
    {
      "constant": false,
      "inputs": [
        {
          "name": "amount",
          "type": "uint256"
        }
      ],
      "name": "issueTokens",
      "outputs": [
        {
          "name": "success",
          "type": "bool"
        }
      ],
      "payable": false,
      "stateMutability": "nonpayable",
      "type": "function"
    },
    {
      "constant": false,
      "inputs": [],
      "name": "fundProject",
      "outputs": [
        {
          "name": "success",
          "type": "bool"
        }
      ],
      "payable": true,
      "stateMutability": "payable",
      "type": "function"
    },
    {
      "constant": false,
      "inputs": [
        {
          "name": "addrs",
          "type": "address"
        }
      ],
      "name": "addOwner",
      "outputs": [
        {
          "name": "success",
          "type": "bool"
        }
      ],
      "payable": false,
      "stateMutability": "nonpayable",
      "type": "function"
    },
    {
      "constant": false,
      "inputs": [
        {
          "name": "addrs",
          "type": "address"
        }
      ],
      "name": "revokeOwner",
      "outputs": [
        {
          "name": "success",
          "type": "bool"
        }
      ],
      "payable": false,
      "stateMutability": "nonpayable",
      "type": "function"
    },
    {
      "constant": false,
      "inputs": [
        {
          "name": "contributor",
          "type": "address"
        },
        {
          "name": "amount",
          "type": "uint256"
        }
      ],
      "name": "rewardContribution",
      "outputs": [
        {
          "name": "success",
          "type": "bool"
        }
      ],
      "payable": false,
      "stateMutability": "nonpayable",
      "type": "function"
    },
    {
      "constant": false,
      "inputs": [
        {
          "name": "amount",
          "type": "uint256"
        }
      ],
      "name": "getEthValue",
      "outputs": [
        {
          "name": "tokenValue",
          "type": "uint256"
        }
      ],
      "payable": false,
      "stateMutability": "nonpayable",
      "type": "function"
    },
    {
      "constant": false,
      "inputs": [
        {
          "name": "amount",
          "type": "uint256"
        }
      ],
      "name": "redeemRewarded",
      "outputs": [
        {
          "name": "success",
          "type": "bool"
        }
      ],
      "payable": false,
      "stateMutability": "nonpayable",
      "type": "function"
    }
  ],
  "bytecode": "0x608060405260006006556000600755600560085560646009556000600a556000600b553480156200002f57600080fd5b5060405162001775380380620017758339810180604052810190808051906020019092919080518201929190602001805182019291906020018051906020019092919080519060200190929190505050836003908051906020019062000097929190620001bb565b508260049080519060200190620000b0929190620001bb565b5081600560006101000a81548160ff021916908360ff1602179055508060018190555060008060008773ffffffffffffffffffffffffffffffffffffffff1673ffffffffffffffffffffffffffffffffffffffff168152602001908152602001600020819055506001600c60008773ffffffffffffffffffffffffffffffffffffffff1673ffffffffffffffffffffffffffffffffffffffff16815260200190815260200160002060006101000a81548160ff02191690831515021790555033600260006101000a81548173ffffffffffffffffffffffffffffffffffffffff021916908373ffffffffffffffffffffffffffffffffffffffff16021790555050505050506200026a565b828054600181600116156101000203166002900490600052602060002090601f016020900481019282601f10620001fe57805160ff19168380011785556200022f565b828001600101855582156200022f579182015b828111156200022e57825182559160200191906001019062000211565b5b5090506200023e919062000242565b5090565b6200026791905b808211156200026357600081600090555060010162000249565b5090565b90565b6114fb806200027a6000396000f30060806040526004361061011d576000357c0100000000000000000000000000000000000000000000000000000000900463ffffffff168063022914a714610122578063031b36771461017d57806306fdde03146101d85780630e15561a1461026857806318160ddd146102935780632df24385146102be578063313ce567146102e957806332679d791461031a5780636d1511011461037f5780637065cb48146103da57806370a0823114610435578063720d798c1461048c5780638b32fa23146104b757806395d89b41146104f8578063a5820daa14610588578063a9059cbb146105cd578063b4134e6e14610632578063d63dc6611461065d578063d6bafe071461067f578063f35dad40146106aa578063faf08ed5146106d5575b600080fd5b34801561012e57600080fd5b50610163600480360381019080803573ffffffffffffffffffffffffffffffffffffffff16906020019092919050505061071a565b604051808215151515815260200191505060405180910390f35b34801561018957600080fd5b506101be600480360381019080803573ffffffffffffffffffffffffffffffffffffffff16906020019092919050505061073a565b604051808215151515815260200191505060405180910390f35b3480156101e457600080fd5b506101ed61075a565b6040518080602001828103825283818151815260200191508051906020019080838360005b8381101561022d578082015181840152602081019050610212565b50505050905090810190601f16801561025a5780820380516001836020036101000a031916815260200191505b509250505060405180910390f35b34801561027457600080fd5b5061027d6107f8565b6040518082815260200191505060405180910390f35b34801561029f57600080fd5b506102a86107fe565b6040518082815260200191505060405180910390f35b3480156102ca57600080fd5b506102d3610808565b6040518082815260200191505060405180910390f35b3480156102f557600080fd5b506102fe61080e565b604051808260ff1660ff16815260200191505060405180910390f35b34801561032657600080fd5b50610365600480360381019080803573ffffffffffffffffffffffffffffffffffffffff16906020019092919080359060200190929190505050610821565b604051808215151515815260200191505060405180910390f35b34801561038b57600080fd5b506103c0600480360381019080803573ffffffffffffffffffffffffffffffffffffffff169060200190929190505050610bdd565b604051808215151515815260200191505060405180910390f35b3480156103e657600080fd5b5061041b600480360381019080803573ffffffffffffffffffffffffffffffffffffffff169060200190929190505050610d4e565b604051808215151515815260200191505060405180910390f35b34801561044157600080fd5b50610476600480360381019080803573ffffffffffffffffffffffffffffffffffffffff169060200190929190505050610ebf565b6040518082815260200191505060405180910390f35b34801561049857600080fd5b506104a1610f07565b6040518082815260200191505060405180910390f35b3480156104c357600080fd5b506104e260048036038101908080359060200190929190505050610f0d565b6040518082815260200191505060405180910390f35b34801561050457600080fd5b5061050d610f3f565b6040518080602001828103825283818151815260200191508051906020019080838360005b8381101561054d578082015181840152602081019050610532565b50505050905090810190601f16801561057a5780820380516001836020036101000a031916815260200191505b509250505060405180910390f35b34801561059457600080fd5b506105b360048036038101908080359060200190929190505050610fdd565b604051808215151515815260200191505060405180910390f35b3480156105d957600080fd5b50610618600480360381019080803573ffffffffffffffffffffffffffffffffffffffff1690602001909291908035906020019092919050505061105b565b604051808215151515815260200191505060405180910390f35b34801561063e57600080fd5b5061064761127a565b6040518082815260200191505060405180910390f35b610665611280565b604051808215151515815260200191505060405180910390f35b34801561068b57600080fd5b50610694611354565b6040518082815260200191505060405180910390f35b3480156106b657600080fd5b506106bf61135a565b6040518082815260200191505060405180910390f35b3480156106e157600080fd5b5061070060048036038101908080359060200190929190505050611360565b604051808215151515815260200191505060405180910390f35b600c6020528060005260406000206000915054906101000a900460ff1681565b600d6020528060005260406000206000915054906101000a900460ff1681565b60038054600181600116156101000203166002900480601f0160208091040260200160405190810160405280929190818152602001828054600181600116156101000203166002900480156107f05780601f106107c5576101008083540402835291602001916107f0565b820191906000526020600020905b8154815290600101906020018083116107d357829003601f168201915b505050505081565b60065481565b6000600154905090565b60085481565b600560009054906101000a900460ff1681565b6000806000600c60003373ffffffffffffffffffffffffffffffffffffffff1673ffffffffffffffffffffffffffffffffffffffff16815260200190815260200160002060009054906101000a900460ff16151561087e57600080fd5b600260009054906101000a900473ffffffffffffffffffffffffffffffffffffffff1673ffffffffffffffffffffffffffffffffffffffff168573ffffffffffffffffffffffffffffffffffffffff16141515156108db57600080fd5b3373ffffffffffffffffffffffffffffffffffffffff168573ffffffffffffffffffffffffffffffffffffffff161415151561091657600080fd5b600954600854850281151561092757fe5b049150600154610954836109468760065461149a90919063ffffffff16565b61149a90919063ffffffff16565b1115151561096157600080fd5b6109b2846000808873ffffffffffffffffffffffffffffffffffffffff1673ffffffffffffffffffffffffffffffffffffffff1681526020019081526020016000205461149a90919063ffffffff16565b6000808773ffffffffffffffffffffffffffffffffffffffff1673ffffffffffffffffffffffffffffffffffffffff16815260200190815260200160002081905550610a6782600080600260009054906101000a900473ffffffffffffffffffffffffffffffffffffffff1673ffffffffffffffffffffffffffffffffffffffff1673ffffffffffffffffffffffffffffffffffffffff1681526020019081526020016000205461149a90919063ffffffff16565b600080600260009054906101000a900473ffffffffffffffffffffffffffffffffffffffff1673ffffffffffffffffffffffffffffffffffffffff1673ffffffffffffffffffffffffffffffffffffffff16815260200190815260200160002081905550610ae08260065461149a90919063ffffffff16565b600681905550610afb8460065461149a90919063ffffffff16565b600681905550600260009054906101000a900473ffffffffffffffffffffffffffffffffffffffff1690508073ffffffffffffffffffffffffffffffffffffffff1663d68ceed8836040518263ffffffff167c010000000000000000000000000000000000000000000000000000000002815260040180828152602001915050602060405180830381600087803b158015610b9557600080fd5b505af1158015610ba9573d6000803e3d6000fd5b505050506040513d6020811015610bbf57600080fd5b81019080805190602001909291905050505060019250505092915050565b6000600c60003373ffffffffffffffffffffffffffffffffffffffff1673ffffffffffffffffffffffffffffffffffffffff16815260200190815260200160002060009054906101000a900460ff161515610c3757600080fd5b600c60008373ffffffffffffffffffffffffffffffffffffffff1673ffffffffffffffffffffffffffffffffffffffff16815260200190815260200160002060009054906101000a900460ff16151515610c9057600080fd5b600260009054906101000a900473ffffffffffffffffffffffffffffffffffffffff1673ffffffffffffffffffffffffffffffffffffffff168273ffffffffffffffffffffffffffffffffffffffff1614151515610ced57600080fd5b6000600c60008473ffffffffffffffffffffffffffffffffffffffff1673ffffffffffffffffffffffffffffffffffffffff16815260200190815260200160002060006101000a81548160ff02191690831515021790555060019050919050565b6000600c60003373ffffffffffffffffffffffffffffffffffffffff1673ffffffffffffffffffffffffffffffffffffffff16815260200190815260200160002060009054906101000a900460ff161515610da857600080fd5b600c60008373ffffffffffffffffffffffffffffffffffffffff1673ffffffffffffffffffffffffffffffffffffffff16815260200190815260200160002060009054906101000a900460ff16151515610e0157600080fd5b600260009054906101000a900473ffffffffffffffffffffffffffffffffffffffff1673ffffffffffffffffffffffffffffffffffffffff168273ffffffffffffffffffffffffffffffffffffffff1614151515610e5e57600080fd5b6001600c60008473ffffffffffffffffffffffffffffffffffffffff1673ffffffffffffffffffffffffffffffffffffffff16815260200190815260200160002060006101000a81548160ff02191690831515021790555060019050919050565b60008060008373ffffffffffffffffffffffffffffffffffffffff1673ffffffffffffffffffffffffffffffffffffffff168152602001908152602001600020549050919050565b60095481565b600080610f27600b54600a546114b690919063ffffffff16565b905060015481811515610f3657fe5b04915050919050565b60048054600181600116156101000203166002900480601f016020809104026020016040519081016040528092919081815260200182805460018160011615610100020316600290048015610fd55780601f10610faa57610100808354040283529160200191610fd5565b820191906000526020600020905b815481529060010190602001808311610fb857829003601f168201915b505050505081565b6000600c60003373ffffffffffffffffffffffffffffffffffffffff1673ffffffffffffffffffffffffffffffffffffffff16815260200190815260200160002060009054906101000a900460ff16151561103757600080fd5b61104c8260015461149a90919063ffffffff16565b60018190555060019050919050565b60008073ffffffffffffffffffffffffffffffffffffffff168373ffffffffffffffffffffffffffffffffffffffff161415151561109857600080fd5b6000803373ffffffffffffffffffffffffffffffffffffffff1673ffffffffffffffffffffffffffffffffffffffff1681526020019081526020016000205482111515156110e557600080fd5b611136826000803373ffffffffffffffffffffffffffffffffffffffff1673ffffffffffffffffffffffffffffffffffffffff168152602001908152602001600020546114b690919063ffffffff16565b6000803373ffffffffffffffffffffffffffffffffffffffff1673ffffffffffffffffffffffffffffffffffffffff168152602001908152602001600020819055506111c9826000808673ffffffffffffffffffffffffffffffffffffffff1673ffffffffffffffffffffffffffffffffffffffff1681526020019081526020016000205461149a90919063ffffffff16565b6000808573ffffffffffffffffffffffffffffffffffffffff1673ffffffffffffffffffffffffffffffffffffffff168152602001908152602001600020819055508273ffffffffffffffffffffffffffffffffffffffff163373ffffffffffffffffffffffffffffffffffffffff167fddf252ad1be2c89b69c2b068fc378daa952ba7f163c4a11628f55a4df523b3ef846040518082815260200191505060405180910390a36001905092915050565b600b5481565b6000600c60003373ffffffffffffffffffffffffffffffffffffffff1673ffffffffffffffffffffffffffffffffffffffff16815260200190815260200160002060009054906101000a900460ff1615156112da57600080fd5b6112ef34600a5461149a90919063ffffffff16565b600a819055506001600d60003373ffffffffffffffffffffffffffffffffffffffff1673ffffffffffffffffffffffffffffffffffffffff16815260200190815260200160002060006101000a81548160ff0219169083151502179055506001905090565b600a5481565b60075481565b60008060008311151561137257600080fd5b60008060003373ffffffffffffffffffffffffffffffffffffffff1673ffffffffffffffffffffffffffffffffffffffff168152602001908152602001600020541115156113bf57600080fd5b826000803373ffffffffffffffffffffffffffffffffffffffff1673ffffffffffffffffffffffffffffffffffffffff168152602001908152602001600020541015151561140c57600080fd5b61141583610f0d565b905061142c836001546114b690919063ffffffff16565b6001819055506114478160075461149a90919063ffffffff16565b600b819055503373ffffffffffffffffffffffffffffffffffffffff166108fc829081150290604051600060405180830381858888f19350505050158015611493573d6000803e3d6000fd5b5050919050565b600081830190508281101515156114ad57fe5b80905092915050565b60008282111515156114c457fe5b8183039050929150505600a165627a7a7230582032cf31c53b37eab1d82f6886d77c7d5616d71c56b464a3ed26718a50ad4983f50029",
  "source": "pragma solidity ^0.4.24;\r\n\r\nimport 'openzeppelin-solidity/contracts/token/ERC20/BasicToken.sol';\r\nimport 'openzeppelin-solidity/contracts/token/ERC20/DetailedERC20.sol';\r\nimport \"openzeppelin-solidity/contracts/math/SafeMath.sol\";\r\n\r\nimport './TributeController.sol';\r\n\r\ncontract TributeToken is BasicToken {\r\n  using SafeMath for uint256;\r\n\r\n  address controller;\r\n\r\n  string public name;\r\n  string public symbol;\r\n  uint8 public decimals;\r\n\r\n  ///\r\n  uint256 public totalRewards = 0;\r\n  uint256 public totalRedeemed = 0;\r\n\r\n  ///\r\n  uint256 public feesNumerator = 5;\r\n  uint256 public feesDenominator = 100;\r\n\r\n  ///\r\n  uint256 public totalFundedValue = 0;\r\n  uint256 public totalRedeemedValue = 0;\r\n\r\n  mapping(address => bool) public owners;\r\n  mapping(address => bool) public funders;\r\n\r\n  constructor(address initiator, string _name, string _symbol, uint8 _decimals, uint256 supply) public {\r\n    name = _name;\r\n    symbol = _symbol;\r\n    decimals = _decimals;\r\n\r\n    totalSupply_ = supply;\r\n\r\n    balances[initiator] = 0;\r\n    owners[initiator] = true;\r\n\r\n    controller = msg.sender;\r\n  }\r\n\r\n  modifier isOwned() {\r\n    require(owners[msg.sender]);\r\n    _;\r\n  }\r\n\r\n  function issueTokens(uint256 amount) isOwned public returns(bool success){\r\n    totalSupply_ = totalSupply_.add(amount);\r\n    success = true;\r\n  }\r\n\r\n  function fundProject() isOwned public payable returns(bool success){\r\n    totalFundedValue = totalFundedValue.add(msg.value);\r\n    funders[msg.sender] = true;\r\n    success = true;\r\n  }\r\n\r\n  function addOwner(address addrs) isOwned public returns(bool success){\r\n    require(!owners[addrs]);\r\n    require(addrs!=controller);\r\n    owners[addrs] = true;\r\n    success = true;\r\n  }\r\n\r\n  function revokeOwner(address addrs) isOwned public returns(bool success){\r\n    require(!owners[addrs]);\r\n    require(addrs!=controller);\r\n    owners[addrs] = false;\r\n    success = true;\r\n  }\r\n\r\n  /// reward someone\r\n  function rewardContribution(address contributor, uint256 amount) isOwned public returns(bool success){\r\n    require(contributor!=controller);\r\n    require(contributor!=msg.sender);\r\n\r\n    /// require the totalSupply_ >= totalRewards+amount+fees\r\n    uint256 fees = (amount * feesNumerator) / feesDenominator;\r\n\r\n    require(totalRewards.add(amount).add(fees) <= totalSupply_);\r\n\r\n    balances[contributor] = balances[contributor].add(amount);\r\n    balances[controller] = balances[controller].add(fees);\r\n\r\n    totalRewards = totalRewards.add(fees);\r\n    totalRewards = totalRewards.add(amount);\r\n\r\n    TributeController coop = TributeController(controller);\r\n    coop.recordFees(fees);\r\n\r\n    success = true;\r\n  }\r\n\r\n  /// value in eth for amount of token\r\n  function getEthValue(uint256 amount) public returns (uint256 tokenValue){\r\n    uint256 remainingFund = totalFundedValue.sub(totalRedeemedValue);\r\n    tokenValue = remainingFund / totalSupply_;\r\n  }\r\n\r\n  /// redeem hold token value\r\n  function redeemRewarded(uint256 amount) public returns(bool success){\r\n    require(amount > 0);\r\n    require(balances[msg.sender] > 0);\r\n    require(balances[msg.sender] >= amount);\r\n\r\n    // calculate amount in eth\r\n    uint256 redeemValue = getEthValue(amount);\r\n\r\n    // burn tokens\r\n    totalSupply_ = totalSupply_.sub(amount);\r\n    totalRedeemedValue = totalRedeemed.add(redeemValue);\r\n\r\n    // transfer eth to sender\r\n    msg.sender.transfer(redeemValue);\r\n  }\r\n\r\n\r\n}\r\n",
  "sourcePath": "/mnt/c/Users/cash/GitHub/tribute/contracts/TributeToken.sol",
  "compiler": {
    "name": "solc",
    "version": "0.4.24+commit.e67f0147.Emscripten.clang"
  },
  "schemaVersion": "2.0.1",
  "updatedAt": "2018-06-27T08:43:22.203Z"
}